:020000040800F2
:10300000A06B00200DBF0008E1B40008E3B4000885
:10301000E5B40008E7B40008E9B4000800000000C7
:10302000000000000000000000000000D3AA00081B
:10303000EBB40008000000008DAA0008EDB4000801
:10304000CDBF0008D1BF0008D5BF0008D9BF000818
:10305000DDBF0008E1BF0008E5BF0008E9BF0008C8
:10306000EDBF0008F1BF0008F5BF0008F9BF000878
:10307000FDBF000801C0000805C0000809C0000825
:103080000DC0000811C0000815C0000819C00008D4
:103090001DC0000821C0000825C0000829C0000884
:1030A0002DC0000831C0000835C0000839C0000834
:1030B00001B5000833B500083DC0000841C0000854
:1030C00045C0000849C000084DC0000851C00008B4
:1030D00055C0000859C00008C1B500085DC000080F
:1030E00061C0000865C0000869C000080000000059
:1030F00000000000000000000000000000000000D0
:1031000000000000000000006DC0000871C0000851
:1031100075C0000813B6000879C000087DC000081B
:1031200081C0000885C0000889C000088DC0000863
:1031300091C0000895C0000899C000089DC0000813
:10314000A1C00008A5C00008A9C00008ADC00008C3
:103150002DE9F0439FB00FF6A836269CDFF80489CE
:103160008DF83B40029100240B944FF0FF3704464A
:1031700091461D460AE019F8011B0298A047002855
:10318000029000F0A1800B98401C0B9099F8000071
:1031900050B12528EFD10021002205910692079118
:1031A000089209910A9203E00B98A0E041F0010116
:1031B00019F8010F2028F9D023280CD02B2804D08F
:1031C0002D2805D0302809D080E041F00201EFE73A
:1031D00041F00401ECE741F00801E9E741F010019A
:1031E000E6E70D920AE00D98404505DA00EB800015
:1031F00002EB4002303A0D9209F1010999F80020E2
:10320000A2F130000A28EED399F800002E2818BF4A
:103210000C9726D119F8010F2A2808D128682860B0
:1032200009F1010950F8042B28600C9219E02D28AF
:103230000CBF09F10109002000220C920BE040B9FB
:103240000C9A424505DA02EB820203EB4203303B63
:103250000C9309F1010999F80030A3F130020A2A10
:10326000EDD3ADF83810304699F8001000F098FD15
:1032700008B119F8010B8DF83A009DF83A0068285A
:1032800005D199F8000068280CD1622106E06C286D
:1032900004BF99F800006C2804D171218DF83A1010
:1032A00009F1010910A804902A4619F8013B694662
:1032B000204600F05CF838B910AA6946204600F0B4
:1032C00086F900287FF562AF384610E02A2888D1B9
:1032D0002A682A6052F8040B2A6000280D9003D552
:1032E00040420D9041F0040109F101098CE71FB043
:1032F000BDE8F083622820D0682811D06A2803D066
:103300006C2827D0712825D10868C01D20F007003F
:103310000860D0E90023083008601946104670475D
:10332000002A0A680A60106803D0121D0A6000B201
:1033300017E0121D0A6080B217E0002A0A680A60CE
:10334000106803D0121D0A6040B20AE0121D0A6024
:10335000C0B20AE0002A0A680A60106803D0121D91
:103360000A60C1177047121D0A600021704770B5CE
:103370001C460D46B4F125002E69114600F015815A
:103380002038022863D9133840D00B3816D0401E9D
:103390001ED0401E02285AD9001F19D0401F00F02D
:1033A0008180401E32D0401E00F0CB80C01E00F055
:1033B000DA80801E2AD0C01E28D0FCE06869421C3A
:1033C0006A610A680A6052F8043B0A603354FCE000
:1033D00095F83A000122FFF78DFFC5E900010029A9
:1033E00004D56869411C69612D220DE0288F810791
:1033F00004D56869411C69612B2205E0C00721D50D
:103400006869411C6961202232541BE095F83A003A
:103410000022FFF76FFFC5E9000195F838000107AA
:1034200010D5D5E90023002B08BF002A0AD044F0AC
:103430002000782806D1686930213154401C421C94
:103440006A613454214668693044E86087E008685E
:10345000C01D20F007000860D0E900230830086094
:10346000C5E90023D5E90001C80F04D06869411CF3
:1034700069612D220DE0288F810704D56869411C00
:1034800069612B2205E0C00704D56869411C6961A8
:103490002022325468693044E8602146284600F012
:1034A000C4F992E005F13A02507820B14FF0FF34B0
:1034B0000FF6540062E01078622808D0682824D003
:1034C0006A2812D06C282ED071280ED02BE00A6802
:1034D0000A6052F8040B0A6020B94FF0FF340FF66F
:1034E00040004BE0E96A01706FE00A680A6052F838
:1034F000040B0A6020B94FF0FF340FF624003DE0C2
:10350000EA6AD317C0E900235FE00A680A6052F84C
:10351000040B0A6020B94FF0FF340FF604002DE0D1
:10352000E96A018051E00A680A6052F8040B0A60F7
:1035300020B94FF0FF340FF2E8701FE0E96A016034
:1035400043E00A680A6052F8040B0A60002120F088
:10355000000221F0FF33C5E90023EE607821284600
:1035600000F0BBF831E00868086050F8044B0860D0
:10357000EC603CB94FF0FF340FF2BC7000F01CFC63
:10358000201A70BD2E6B002E04D5204600F034FCAE
:10359000044608E032460021204600F049FC00289D
:1035A00014BF041B3446AC610FE06869411C6961BB
:1035B0002522325409E06969481C68612522725449
:1035C000210002D0431C6B613454002070BD2DE9F2
:1035D000FC410F46064690467A6B7869396ABC6AA8
:1035E000121AB869521A796A121AF869521A121A1A
:1035F00097F83800141B41070FD42020002C8DF8B9
:1036000000000ADD254601236A463946304600F0AF
:103610005FFB00285DD16D1EF5D17B6942463946BE
:10362000304600F055FB002853D130208DF80000C3
:103630003D6A002D09DD01236A463946304600F017
:1036400047FB002845D16D1EF5D1BB69FA683946A4
:10365000304600F03DFB00283BD130208DF80000C3
:103660007D6A002D08DD01236A463946304600F0A8
:103670002FFB70BB6D1EF6D1F868B969FB69421863
:103680003946304600F024FB18BB30208DF800008E
:10369000BD6A002D08DD01236A463946304600F038
:1036A00017FBB0B96D1EF6D197F8380041070DD55C
:1036B0002020002C8DF8000008DD01236A463946E1
:1036C000304600F005FB20B9641EF6D10020BDE8AD
:1036D000F6814FF0FF30BDE8F6812DE9FC43074647
:1036E0006F293E6908BF082405D041F020007828E2
:1036F00014BF0A2410243C25D7E90023642918BFED
:1037000069299046994605D1002B03D5D8F10008C8
:1037100069EB4909B9F1000F08BFB8F1000F1FD1DB
:10372000386BE8B9082C4CD197F83800010748D518
:1037300030203B2586F83B0043E000280ED597F863
:10374000380000F01400102808D17B6B7969386AC2
:103750005B1A1B1A9A1A002AC8BF3A62BDE8F383A3
:103760008DF80010404649462246E31700F08CFBD6
:103770003032D0B26D1E3A28019504DB9DF800006E
:10378000A0F151018A187255404649462246E31776
:1037900000F07AFB80465FEA010908BFB8F1000F2C
:1037A00003D0F86871198842DCD3082C09D197F846
:1037B0003800010705D5705D302802D06D1E30201D
:1037C0007055C5F13C02BA617119F960386B8242DB
:1037D000B3DA821A3A624FF6EF70398F01403987B7
:1037E000BDE8F3832DE9D04306460F4614464FF05B
:1037F0000008DFF8749212E0E00707D542464B4616
:103800003046394600F058FC06460F4640464946C9
:1038100042464B4600F050FC641080468946002C1E
:10382000EAD130463946BDE8D0832DE9F047064657
:1038300089468EB0D6E90001CDE9020104AC306BB7
:10384000002802D50620306305E001BF49F02000C2
:10385000672801213163D6E9002358004015401C38
:103860000DD119030BD0A9F1610103201A29B06110
:1038700002D20FF2E04110E00FF2DC410DE05900FE
:103880004915491C0ED118030CD1A9F1610103207F
:103890001A29B06116D30FF2C841F068032200F074
:1038A000DDFCDBE023F00047B7F5801F104619462A
:1038B00022F000050DD20022002F08BF002D01923A
:1038C00003D116E00FF29441E7E701AA00F01AFDD8
:1038D00008E06648664900EB1750019065480340D0
:1038E00010461943019B644D47F29752534393FB93
:1038F000F5F2C6E9000120F0000331F0004104BFF9
:10390000002B002300F0A280DDE90240019220F0AC
:103910000045D2F1070204DD20462946FFF762FF89
:103920000AE0524200205549FFF75CFF02460B4671
:103930002046294600F01EFD044649F0200ABAF14F
:10394000660F306B06BF019D0A3506252D18142D14
:10395000C8BF1425302088468DF810000DF11107DE
:10396000002D33DD2046414600F028FE01460A4680
:1039700007F1080304200A27B2FBF7F707EB870ECD
:10398000A2EB4E02303203F8012C0A22B7FBF2F20E
:1039900002EB820EA7EB4E073037401E03F8027D84
:1039A000E9D1083D002D03F10807D9DD084600F0F4
:1039B00019FE02460B462046414600F021FE002239
:1039C0002F4B00F079FB04468846CBE70DF1110040
:1039D0003F1A0DF1110404E00198401E7F1E019072
:1039E000641C20783028F7D0BAF1660F02D1019814
:1039F000401C04E0BAF1650F0CBF01200020336BBE
:103A0000C3189F42B8BF7B1E002B1ED4BB4204DAF2
:103A1000E05C3528A8BF392000DA30201946621E44
:103A200002EB010800E05B1E18F80179491E87428D
:103A3000F9D0392802D1605C401C6054002904D5BB
:103A40000198401C14465B1C0190019800B2009044
:103A50001BB222464946304600F014F80EB0BDE8CD
:103A6000F0870000CBCCCC0C0000244002FCFFFF10
:103A70000000E03FFFFF0F80A08601000000F03F44
:103A800084D797412DE9F84783B005468A46914689
:103A9000984600F027FEB8F1000F406A2F6B0678B9
:103AA00003DC4FF001080FF2BC294AF02000BDF9F9
:103AB0003040662808BF641C13D0672840F08F8010
:103AC00014F1040F7ADBBC4278DA95F83800641CF4
:103AD000010702D4B845B8BF474620B23F1A48BFD5
:103AE00000270FFA84FAE868A969BAF1000F23DC0D
:103AF0004A1C30234354002F03DC95F8380001079B
:103B000002D5E8688654521C17EB0A0FB8BF7C42F6
:103B100024B2E71960424745B8BFB846AA61686257
:103B20000FFA88F4EC61E868AB692246494618440C
:103B300000F094FB3F1B18E022B29045084416DACF
:103B40004246494600F08AFBA8694044A861AAEBB6
:103B50000801002F696203DC95F838100A0704D5C4
:103B6000E9680E54E869401CE861AF6299E0494693
:103B700000F074FBA869002F5044A8EB040803DC94
:103B800095F838100A0702D5E9680E54401CA86160
:103B90000FFA88F08742EB68A869B8BFB8460FFAF9
:103BA00088F209EB0A01184400F058FBA9690FFAE2
:103BB00088F00144A961381A686272E0B84504DAF5
:103BC00095F838100A0758BF47467F1E48BF0027A0
:103BD000BAF1670F0CBF4FF0650A4FF0450AA969AB
:103BE000EB68481CA861002F19F8012B5A5403DC1C
:103BF00095F838100A0719D5E968431CAB610E54D3
:103C0000002F13DDA8F1010630B28742D5F80CC0B1
:103C1000B8BF3E4632B249460CEB030000F01EFB33
:103C2000A86936B23018BF1BA8616F62E868A9693D
:103C30000844002C80F800A003D42B224270811C81
:103C400003E02D2141706442811C00206A460AE095
:103C500023460A2493FBF4F404EB8406A3EB460307
:103C600002F8013B401C24B2002CF1DC012806DCE8
:103C70004AF02002652A04BF302201F8012B48B91E
:103C8000302001F8010B07E0401E1DF800303033F2
:103C900001F8013B0028F7DCEA68A8691044091A1A
:103CA000E96195F8380000F0140010280DD16A6918
:103CB000A969686A8A18E9698218A86A8A18821844
:103CC000686B8242BCBF821A2A6204B0BDE8F087EA
:103CD000F8B505460E4617461C46002074B117F885
:103CE000011BB068A847B06030B1F06A401CF062B8
:103CF0000020641EF3D1F2BD4FF0FF30F2BD000092
:103D0000686A6C747A4C00007072696E74665F73D6
:103D10003A20256E20646973616C6C6F776564006E
:103D20007072696E74663A2062616420256E20614B
:103D30007267756D656E74007072696E74665F731C
:103D40003A2062616420257320617267756D656E2B
:103D5000740000006E616E004E414E00696E660098
:103D6000494E4600300030B4002513E050F8042BD3
:103D7000D30744BFA9F101039A18091F042942F887
:103D8000045BFAD213468C0744BF15809B1CC907FD
:103D900048BF1D7050F8041B0029E7D130BC7047A4
:103DA000C9B202788A421AB11CBF10F8012FF9E794
:103DB00018BF00207047190180B500B906A0054959
:103DC0000B681BB122220021984701E000F08EFC15
:103DD000222002BD705B0020636F6E737472616994
:103DE0006E742068616E646C65723A206261642052
:103DF0006D6573736167650000F10103810704D08D
:103E000010F8011B820781B1FAD10268A2F10131D9
:103E1000914311F0803104BF50F8042FF6E709BA3E
:103E2000B1FA81F100EBD100401CC01A70471902B1
:103E3000C9B2830706D0521E22D310F8013B994223
:103E4000F7D11FE0083A13D302F1040241EA01213D
:103E500041EA014150F8043B121F21BF4B40A3F13E
:103E6000013C2CEA030C1CF0803FF3D0C9B2001FC8
:103E7000083210F8013B521E28BF91EA030FF8D810
:103E800018BF0120401E7047BBBBE1B1B2F5803FB7
:103E900080F07E80022A1ED98C46B1FBF2F102FB33
:103EA00011C31B0443EA1043B3FBF2FC02FB1C33B7
:103EB00080B240EA0343B3FBF2F002FB103240EA67
:103EC0000C4000237047022A05D98446B0FBF2F06B
:103ED00002FB10C270474AB105D100F00102490847
:103EE0005FEA3000704700220023704700F002BCF8
:103EF0000B000200002100207047904271EB030C80
:103F0000F6D3B3F5803F2FD2F0B5B3FA83F7B1FA09
:103F100081F4A7F10F0E3D1B5340CEF1200602FAAB
:103F20000EF2F3415340B5F10F0746D80F3C2C4435
:103F30004140C4F12006A040F1414140B1FBF3F6FD
:103F400003FB1611A2FB0645001BA94102D2761EF7
:103F50008018594180EA010221FA0EF362FA0EF24A
:103F600000215A403046F0BD30B4B1FBF3FC03FBF6
:103F70001C11A2FB0C45001BA94103D2ACF1010CA2
:103F80008018594130BC02460B46604600217047FC
:103F9000B2F1807F65D3F0B5B2FA82F7B1FA81F45D
:103FA000C7F10F063D1B22FA06F307F1110EF2418D
:103FB00020355A40B5F10F07B8D94140C4F1200669
:103FC000A040F1414140B1FBF3FC03FB1C11A2FBFB
:103FD0000C45001BA94103D2BCF1010C80185941CA
:103FE0000F2F12D30F3FC90341EA5041B1FBF3F643
:103FF00003FB1611A2FB0645D4EBC030A94102D247
:10400000761E8018594146EACC3C07B34140C7F1BF
:104010002006B840F1414140B1FBF3F603FB161115
:10402000A2FB0645001BA94102D2761E8018594109
:1040300080EA010221FA0EF3C7F1200462FA0EF2BF
:104040000CFA07F05A402CFA04F13043F0BD80EA34
:10405000010221FA0EF3002162FA0EF260465A4084
:10406000F0BD8C46B1FBF2F102FB11C31B0243EA27
:104070001063B3FBF2FC02FB1C331B024CEA002072
:1040800043EA1063B3FBF2FC02FB1C331B024CEA55
:10409000002043EA1063B3FBF2FC02FB1C331B025B
:1040A0004CEA002043EA1063B3FBF2FC02FB1C3233
:1040B0004CEA002000237047B0B581EA030C0CF0F5
:1040C000004C40F2FF7515EA11541DBF15EA135755
:1040D000AC42AF4239E0E41923EA455343F480137C
:1040E000C90241F0004141EA505EC7021100A7FB3E
:1040F000020200284FF00000EEFB01204FF000010B
:10410000E3FB072118BF42F001024018002149419A
:10411000E3FB0E01A4F580640F0302D2520040417C
:10412000494154F101046CDD470872F1004250F13D
:10413000000051EB0451A1F580115CBF41EA0C0174
:10414000B0BD4CEA05510020B0BD05EA1357AC42A2
:1041500014BFAF4241E050EA410E1CBF52EA430E89
:1041600002E061460020B0BD24423C441BD15FEA1E
:10417000070EF6D0090302BF01460020AEF1140E6F
:10418000B1FA81F7AEEB070401FA07FE0C37C7F16D
:10419000200100FA07F7C8404EEA000E23EA455313
:1041A00043F48013A2E733F00043B3FA83F704BF6C
:1041B000B2FA82FE77440B3FE41BB7F1200E2FBF0B
:1041C00002FA0EF3BB40C7F1200E22FA0EFE38BFF2
:1041D00043EA0E03BA40641C82E750EA410E14BF62
:1041E00052EA430E6FF000014FF4001717EB430F34
:1041F0008ABF194617EB410FB5E74CEA055100207D
:10420000B0BDD4F10104B4F120070FDAC4F12007E6
:10421000520828BF42F0010210FA07F501FA07F729
:10422000E1BF2A43E0403843E1400FE0352C98DC01
:10423000C7F1200452EA400220FA07F218BF42F008
:10424000010231FA07F0A1400A43002172F1004255
:1042500050F1000051EB0C01B0BD000562B38B07BB
:1042600008D0521E11F8013B00F8013B00F02480F9
:104270008B07F6D1830740F0208000BF103A07D3A8
:1042800030B4B1E83810103AA0E83810F9D230BC98
:10429000530724BFB1E80810A0E8081044BF51F844
:1042A000043B40F8043BD20724BF31F8022B20F82E
:1042B000022B44BF0B7803707047121F17D35B00AB
:1042C00009D151F8043B20F8023B1B0C121F20F8C7
:1042D000023BF6D20BE051F8043B00F8013B1B0A0D
:1042E00020F8023B1B0C121F00F8013BF3D238BF31
:1042F000121D521E24BF11F8013B00F8013BF8D8F3
:104300007047000010B5144600F002F8226010BD9E
:10431000C1F30A5343B14A0012F5001F28D2A3F299
:10432000FE32A1EB0251704750EA410C20D001F05F
:10433000004C31EA0C01B1FA81F204BFB0FA80F30B
:10434000D2180B3AB2F120032CBF00FA03F19140CE
:1043500041EA0C013EBFC2F1200C20FA0CF31943D4
:104360009040524240F2FD33D21A01EB03517047A4
:1043700000227047F0B540F2FF7581EA030C0CF0A3
:10438000004C15EA11541DBF15EA1357AC42AF4259
:10439000E5E0BC41C1F31301C3F31303801A994153
:1043A00043F4801304D2641E4000494180185941EF
:1043B000C90241EA5051B1FBF3F603FB1611A2FB0F
:1043C0000675D7EBC020A94102D2761E801859414C
:1043D000C90241EA5051B1FBF3FE03FB1E11A2FBDF
:1043E0000E75D7EBC020A94103D2AEF1010E8018A3
:1043F0005941890241EA9051760546EA8E2EB1FB79
:10440000F3F603FB1611A2FB0675D7EB8020A9413A
:1044100002D2761E80185941C90241EA50514EEA33
:10442000060EB1FBF3F603FB1611A2FB0675D7EBE4
:10443000C020A94102D2761E80185941C90241EA22
:104440005051B1FBF3F703FB1711A2FB0735D3EB78
:10445000C020A94167F100070CBF004247F00107E7
:1044600066F3D5274FEA1E31B80814F5806412DDD3
:10447000BD0775F1004250EB0E5051EB045111F5A0
:10448000801F5CBF41EA0C01F0BD4CF07F6141F040
:10449000E0410020F0BDBD076D0840EA0E5041F438
:1044A0008011D4F10104B4F120060ADAC4F1200627
:1044B0000200E04001FA06F3E1401843B240154320
:1044C0000EE0342C13DCC6F1200445EA40056D08EB
:1044D00020FA06F2154321FA06F0A1400D4300210F
:1044E00075F1004250F1000051EB0C01F0BD0020CD
:1044F0005FEA0C01F0BDCFB992185B41B3FA83F7C4
:1045000004BFB2FA82F6BF190B3FB7F120062FBFE6
:1045100002FA06F3BB40C7F1200622FA06F638BFBE
:104520003343BA401CB1E419641E33E77F4231F0D3
:104530000041B1FA81F404BFB0FA80F6A4190B3C33
:10454000B4F120062FBF00FA06F1A140C4F1200605
:1045500020FA06F638BF3143A0403C1B1AE7AC42B4
:104560001ABF05EA1357AF4212E050EA41061CBFDA
:1045700052EA4306BFE750EA4107304661461CBF96
:1045800041EA0551F0BD52EA430C08BFC143F0BDFA
:1045900000204FF4001616EB410F98BF16EB430FA7
:1045A00008BF16EB410F24BFC14305E016EB430FD4
:1045B0000CBF61464CEA0551F0BD0000400D4918A2
:1045C00040EA81200CD2490DA1F58061491C40F0E0
:1045D000004005DBD1F11F0154BFC840C017704730
:1045E00000207047014648B1B0FA80F18840C91CEC
:1045F000C1F58461090501EBD02140057047000039
:1046000070B44FF0004591EA030F40F175806B40A4
:10461000841A71EB030603D2001BB14112197341D6
:104620004FF4001C1CEB410F34BF7CEB430442E011
:104630000C0DA4EB1356352E4FDC45EAC323DB0AE1
:1046400045EAC121C912B6F120050DDD63FA05F670
:10465000EB4086EA0305124218BF45F00105C01879
:1046600051F100010CD213E062FA06F5F240554018
:10467000F3415A40B340F3405A408018594107D3A0
:1046800049085FEA30005FEA350528BF45F00105BB
:1046900001F58011420875F1004250F1000041EB34
:1046A00004514E0016F5001F70BC38BF7047002043
:1046B000090D090570471CEB410F10D252EA430661
:1046C0000BD0BCEB410F05D80C0DAB43661E342E4E
:1046D000B6DD02E0AB438018594170BC704770BC36
:1046E00070470000004870476C000020012000F077
:1046F000B9B8000070470000841A71EB030604D2B9
:104700006E40001BB141121973414FF4001C1CEBA9
:10471000410F34BF7CEB430683E00C0DA4EB135632
:10472000362E00F37C80012E45EAC32341DC43EAA8
:10473000525312BFD20292025B08240545EAC121FE
:1047400041EA5051D2EBC020994125D407D1B0FAAB
:1047500080F610FA06F162D00020203608E0B1FAA7
:1047600081F6B140C6F1200220FA02F21143B040B6
:104770004FEAF474B4EB465434F001064FEA740483
:104780000AD8D6F50016760D04F00044F04061FA20
:1047900006F25040F1404840C00A40EA415021F042
:1047A000004128BF5FEA500550F1000044EBD121E1
:1047B00035E0DB0A45EAC121C90AB6F120050EDD64
:1047C00042EA0242120CC5F1200603FA06F6EB405B
:1047D00042EA06056D42984161F100010DE062FA7E
:1047E00006F5F240554063FA06FC82EA0C02F340FB
:1047F0005A406D42904161EB030111F4801F05D1D5
:10480000641E620502D06D004041494121F48011CF
:10481000430875F1004350F1000041EB045170BCB6
:1048200070471CEB410F15D223F0004352EA4306B8
:104830000BD04FEA4C0CBCEB410F04D80C0D661E9C
:10484000342EB7DDEBE7801A994150EA410608BFE4
:104850000021E4E708BF1CEB430F28BF6FF0000105
:10486000DDE7000080B5AFF30080024A1100182098
:10487000ABBEFBE726000200020052B2002A09D5B7
:104880000901DFF8F82A40B210F00F00104400F8D8
:10489000041C04E00901DFF8E82A40B21154704713
:1048A00080B5411EB1F1807F01D3012011E0401E8F
:1048B000DFF8D01A08600F215FF0FF30FFF7DCFF50
:1048C0000020DFF8C41A08600720DFF8C01A08606B
:1048D000002002BD80B500F0C7FD5FF4803000F01D
:1048E000EBFD00F005FEC0B2012824D1102000F03D
:1048F0005AFF022000F04EFF002000F031FE0020A1
:1049000000F03EFE4FF4806000F032FE5FF4801154
:104910005FF4803000F008FE012000F00FFE392027
:1049200000F0F4FE0028FAD0022000F00CFE00F0A7
:1049300012FE0828FBD1012140F67D2000F0AEFEDA
:104940000121DFF84C0A00F0B7FE01215FF0C050F2
:1049500000F0B2FE0121412000F092FE01BDE0B561
:10496000ADF80400ADF800100020ADF806000020FE
:10497000ADF8020069465FF0804001F098F801222E
:1049800001215FF0804001F073F901215FF0804068
:1049900001F04FF907BD80B54FF440515FF0006062
:1049A00001F0FDF94FF4407001F0C4F900208DF8DA
:1049B000010043208DF8000000208DF80200002047
:1049C0008DF80300684601F0BAF926208DF8000042
:1049D00000208DF8020001208DF80300684601F0E8
:1049E000AEF934208DF8000000208DF80200002080
:1049F0008DF80300684601F0A2F935208DF800001B
:104A000000208DF8020000208DF80300684601F0B8
:104A100096F91C208DF8000000208DF8020001207E
:104A20008DF80300684601F08AF901BD80B54BF6A8
:104A30008030FFF735FF002800D0FEE700215FF04F
:104A4000FF30FFF719FF01BD38B50400DFF8445906
:104A50002100C9B289B2280001F09EFA2888000618
:104A6000FCD5200032BD2DE9F84303208DF802006B
:104A70000121DFF8240901F057FB4FF48054ADF811
:104A8000004048208DF80300DFF8105969462800DF
:104A900001F0DAFA2020ADF8000010208DF80300B4
:104AA000DFF8FC686946300001F0CEFA0120ADF86D
:104AB000000010208DF803006946280001F0C4FAB8
:104AC0001020ADF8000000208DF80300DFF8D47846
:104AD0006946380001F0B8FA2020ADF80000042043
:104AE0008DF803006946380001F0AEFA4FF480708B
:104AF000ADF8000010208DF803006946380001F081
:104B0000A3FA4FF40078ADF8008018208DF8030068
:104B10006946380001F098FA4FF40040ADF8000003
:104B200010208DF803006946380001F08DFA082046
:104B3000ADF8000010208DF803006946280001F050
:104B400083FA1020ADF8000010208DF803006946AC
:104B5000280001F079FA4FF44070ADF80000102001
:104B60008DF803006946280001F06EFA0F20ADF8B9
:104B7000000000208DF803006946300001F064FA5F
:104B80008020ADF8000000208DF803006946380051
:104B900001F05AFA1020ADF8000000208DF8030053
:104BA0006946300001F050FA0220ADF800001820EC
:104BB0008DF803006946280001F046FA4020ADF860
:104BC000000010208DF803006946300001F03CFA27
:104BD0004FF4C070ADF8000010208DF80300694656
:104BE000300001F031FA4FF48060ADF80000102081
:104BF0008DF803006946300001F026FA4FF4006991
:104C0000ADF8009004208DF803006946300001F0F3
:104C10001BFA2020ADF8000010208DF80300694633
:104C2000280001F011FA8020ADF8000018208DF85E
:104C300003006946280001F007FA2020ADF80000C3
:104C400010208DF803006946380001F0FDF9ADF839
:104C5000008010208DF803006946300001F0F4F95F
:104C60004FF42040ADF8000010208DF80300694695
:104C7000280001F0E9F944F24400ADF800001020EA
:104C80008DF803006946280001F0DEF94020ADF8F8
:104C9000000010208DF803006946380001F0D4F9B7
:104CA0000220ADF8000028208DF803006946380086
:104CB00001F0CAF90420ADF8000018208DF80300B7
:104CC0006946380001F0C0F90820ADF80000042062
:104CD0008DF803006946380001F0B6F9ADF8009090
:104CE00004208DF803006946300001F0ADF9ADF8FD
:104CF000004018208DF803006946300001F0A4F947
:104D00004FF40041380001F00CFABDE8F18338B5EA
:104D100001F052FA01F087FA01F070FB0C21B72084
:104D200001F084FB40F2E73441F2BF252900200066
:104D300001F03EFD29002000FFF711FE0B212000AD
:104D400001F012FE5FF4E131DFF85C0601F0DCFEF9
:104D50005FF4E131DFF83C0601F0D6FE31BD80B5ED
:104D6000FFF7B8FDFFF717FEFFF760FEFFF77BFECA
:104D700001BD80B502F0E3F95021DFF8300601F003
:104D800000FFDFF82C0602F047FC01BDE0B5012072
:104D900080F31088FFF7E3FFFFF7B9FFFFF7E9FFA4
:104DA000DFF8100601900120009000238022DFF838
:104DB00008160FF2110002F06DFD02F0D8FE00207F
:104DC0000EBD0000E0B503F022FBDFF8F005019016
:104DD0000420009000238022DFF8E4150FF27D000C
:104DE00002F058FDDFF8DC0501900520009000235B
:104DF0008022DFF8D4150FF27D0002F04BFDDFF8C2
:104E0000CC0501900620009000238022DFF8C01519
:104E10000FF2890002F03EFDDFF8B8050190032093
:104E2000009000238022DFF8B0150FF2990002F005
:104E300031FDDFF8A80501900220009000238022B8
:104E4000DFF89C150FF2791002F024FDDFF86405FD
:104E5000006802F000FE03F0F4FA07BD80B503F02D
:104E6000DFFB142002F05DFEDFF878050188491CA5
:104E70000180F4E780B501F099FADFF86C0590F84D
:104E80006600002801D103F02CFD0C2002F049FE41
:104E9000DFF850054188491C4180ECE780B5DFF818
:104EA0004C35DFF80C25DFF80415012002F01EFC5C
:104EB000012002F036FEDFF82C058188491C818034
:104EC000EDE7000080B5DFF82005007802F00FFB69
:104ED000192002F026FEDFF80C05C188491CC180AC
:104EE000F1E710B586B0DFF808050088ADF80800D6
:104EF00004F0F4F8FF2490FBF4F104FB11008DF8AA
:104F0000040004F0EBF801AA90FBF4F104FB110497
:104F100054709DF8041091F0AB0111F0F0019DF870
:104F2000080041408DF80C1003A9537893F0AB03AF
:104F300013F00F039DF8090043404B709DF80400E7
:104F400090F0CD008870507890F0CD00C8708878CF
:104F500090F0CD008DF806000DF10602C87890F0B3
:104F6000CD0050709DF8063093F0AB0313F0F003C2
:104F70009DF80C0043408DF80A30527892F0AB0255
:104F800012F00F02487842408DF80B20FE208DF879
:104F9000100004A89DF80C2042704A7882708A782C
:104FA000C270C8788DF8140004A80090022344222F
:104FB0000521DFF8F40302F048FB06B010BD000045
:104FC0002DE9F843002000200020002500260024C1
:104FD0003AE00025002497F8660002282BD1202013
:104FE000DFF8101408600120DFF80C1408600020BE
:104FF000F884002087F85E00002087F866001AE039
:105000000025641C40F2A460B4FBF0F100FB1140E9
:10501000002805D10B2501203871002078702C263E
:105020004FF23C00844206D3022087F8660001203C
:105030003871002078703000C0B2002800D0761E91
:105040004FF42F7002F06DFDDFF8B083404604F09E
:1050500097F8DFF894733878002804D0DFF8A003BD
:1050600004F08EF803E0DFF89C0304F089F8398A35
:10507000DFF8940304F084F8798ADFF8900304F0F1
:105080007FF8B98ADFF8880304F07AF8388A0028B4
:105090000FD0388A673004F087F804F097F8DFF80B
:1050A0007423DFF87433FFF765F904F0B3F8814631
:1050B00001E05FF00009484604F0E0F8A7F8560068
:1050C000484604F083F802000B00DFF8500304F0B8
:1050D00057F8788A00280DD0788A673004F064F891
:1050E00004F074F8CB4ACC4BFFF744F904F092F883
:1050F000814601E05FF00009484604F0BFF8A7F8D8
:105100005800484604F062F802000B00C44804F05E
:1051100037F897F82410C34804F032F8398DC248A4
:1051200004F02EF897F82510C04804F029F8F98CFF
:10513000BF4804F025F8F88C00280CD0F88C7330A8
:1051400004F032F804F042F8BA4ABB4BFFF712F908
:1051500004F060F800E0002004F038F802000B00D2
:10516000B64804F00DF897F82210B54804F008F896
:10517000398CB44804F004F897F82C00002803D0C8
:10518000B14803F0FDFF0DE097F82D00002802D094
:10519000AE4803F0F5FF97F82E00002802D0AC4887
:1051A00003F0EEFF387F00280BD0AA4803F0E8FF99
:1051B000B86904F00BF802000B00A74803F0E0FF09
:1051C00002E0A64803F0DCFF798DA54803F0D8FF84
:1051D000B87F002802D0A34803F0D2FF404603F076
:1051E000CFFF03F0DAFA3878002801D003F0A1FAF3
:1051F0003878012805D197F86300002801D1FFF71E
:1052000070FE17F1530117F1520004F08EF897F871
:10521000660001287FF4DDAE2800C0B2002813D05C
:10522000022827D015D3042840D031D3062859D0DE
:105230004AD3082872D063D30A2800F08B807BD32E
:105240000B2800F09580DCE60120F87001250A2685
:10525000D7E63000C0B200287FF4D3AE40F60B1082
:10526000F884042087F85D00012087F85E0002259D
:105270006426C6E63000C0B200287FF4C2AE042027
:1052800087F85D00052087F85E0003256426B8E6F0
:105290003000C0B200287FF4B4AE032087F85D0070
:1052A000052087F85E0004256426AAE63000C0B217
:1052B00000287FF4A6AE042087F85D00052087F85B
:1052C0005E00052564269CE63000C0B200287FF40D
:1052D00098AE032087F85D00052087F85E0006255C
:1052E00064268EE63000C0B200287FF48AAE042027
:1052F00087F85D00022087F85E000725642680E6B7
:105300003000C0B200287FF47CAE042087F85D0036
:10531000032087F85E000825642672E63000C0B2DC
:1053200000287FF46EAE052087F85D00002087F826
:105330005E0009250A2664E63000C0B200287FF42A
:1053400060AE042087F85D00012087F85E000A2522
:10535000642656E63000C0B200287FF452AE042026
:1053600087F85D00052087F85E000125642648E681
:105370003000C0B200283FF443AE42E618ED00E032
:1053800000E400E014E000E018E000E010E000E0DD
:105390000F0016200050004000023000000C0140B9
:1053A00000100140000801400044004088580020DF
:1053B0000C5A0020005B002034BF0008045B002072
:1053C00040BF0008105B00204CBF0008085B0020B5
:1053D00058BF00080C5B002064BF0008145B00206D
:1053E00070BF0008D85A0020AC570020795B00201D
:1053F0005A42000810100140100C0140E4BB0008A4
:105400007CBE00088CBE0008FCBC000814BD00086F
:105410002CBD0008EC51B81E85EB194044BD0008B6
:105420005CBD00089CBE000874BD0008ACBE00084E
:105430008CBD0008CDCCCCCCCC4C3340A8BC0008F3
:105440001CBE0008A4BD000854BC0008C4BC000871
:10545000E0BC000830BE0008BCBE000844BE000826
:1054600058BE00087CBF0008DFF8DC12086850F066
:1054700001000860DFF8D4221368DFF8D40203408B
:1054800013600B68DFF8CC0203400B60086830F44F
:1054900080200860106830F4FE001060086830F06A
:1054A000A05008605FF47F00DFF8AC1208600020B5
:1054B000DFF8A81208607047DFF88C120A6832F42F
:1054C00080320A600A6832F480220A60B0F5803FB8
:1054D00003D0B0F5802F05D009E0086850F4803083
:1054E000086004E0086850F4A0200860FFE77047F7
:1054F00080B50020009000200020312000F006F947
:105500000099491C00910099B1F5A06F02D0C0B27A
:105510000028F2D0312000F0F9F8002801D0012055
:1055200000E00020C0B202BD0022DFF820321A687D
:1055300032F474120843104318607047C0B2DFF8A9
:105540002012086070470021804A1168890889008C
:105550000843106070477D48006810F00C007047E9
:1055600000217A4A116831F0F00108431060704759
:105570000021764A116831F4E061084310607047F9
:105580000021724A116831F4605151EAC001116082
:10559000704770B40021002100210021002100216A
:1055A00000210021694A116811F00C01002904D082
:1055B000042905D0082906D03BE06B4901603AE098
:1055C0006A49016037E0136813F47013116811F42D
:1055D00080319B0C0D2B01D09B1C00E00623002981
:1055E00003D163494B43036022E05C4D296811F409
:1055F00080312C6814F00F04641C002906D15B492B
:10560000B1FBF4F103FB01F3036011E02968C1F37E
:105610000311491C2D68C5F30325AD1C534EB6FB81
:10562000F1F105FB01F5B5FBF4F103FB01F30360B8
:1056300001E04D490160116811F0F00109094D4B7D
:10564000595C0468CC404460116811F4E061090AB7
:10565000595C4468CC408460116811F46051C90AF7
:10566000595C4368CB40C360116811F44041890B19
:10567000414A515CC268B2FBF1F1016170BC7047F4
:10568000C9B2002904D03D490A681043086004E00B
:105690003A490A6832EA000008607047C9B2002936
:1056A00004D037490A681043086004E034490A68A6
:1056B00032EA000008607047C9B2002904D03149BD
:1056C0000A681043086004E02E490A6832EA0000C4
:1056D00008607047C9B2002904D02B490A681043FA
:1056E000086004E028490A6832EA00000860704750
:1056F000C9B2002904D025490A681043086004E0B3
:1057000022490A6832EA000008607047002100213F
:1057100000210100C9B24909C9B2012902D10A49CF
:10572000096806E0022902D10E49096801E018491A
:105730000968C0B210F01F00C140C80701D50120A0
:1057400000E00020C0B27047001002400410024088
:105750000000FFF0FFFFF6FE081002402C10024090
:105760006000424220100240001BB70000127A0085
:10577000808D5B0004000020140000201410024003
:10578000181002401C1002400C1002401010024081
:10579000241002400021DFF8F420116811F03801D4
:1057A000084310607047DFF8E4100A6832F0100216
:1057B0000A600A68104308607047DFF8D400DFF819
:1057C000D4100160DFF8D01001607047DFF8CC0022
:1057D000016851F080010160704738B50400042071
:1057E0005FF4302000F060F80100C9B2042915D13F
:1057F000DFF8A850286850F002002860DFF8A00009
:105800000460286850F0400028605FF4302000F009
:105810004BF82A6841F6FD710A402A60C0B232BDD9
:1058200070B504000D0004204FF4005000F03CF867
:105830000100C9B204290FD1DFF86060306850F070
:105840000100306025804FF4005000F02DF83268E0
:1058500041F6FE710A403260C0B270BD1149086065
:10586000704704200F480168C90701D501200AE0EC
:105870000168490701D5022005E00068C00601D58E
:10588000032000E00420C0B2704700000020024066
:105890000420024023016745AB89EFCD1020024070
:1058A000142002400C20024010B504000420FFF731
:1058B000D8FF02E0FFF7D5FF641E0100C9B201293D
:1058C00001D1002CF6D1002C00D10520C0B210BDB2
:1058D00080B5DFF81C1488420AD101214FF4006022
:1058E000FFF7F8FE00214FF40060FFF7F3FEDDE064
:1058F000B0F1804F08D101210120FFF7F9FE00210E
:105900000120FFF7F5FED1E0DFF8E813884208D167
:1059100001210220FFF7ECFE00210220FFF7E8FE44
:10592000C4E0DFF8D413884208D101210420FFF736
:10593000DFFE00210420FFF7DBFEB7E0DFF8BC1339
:10594000884208D101210820FFF7D2FE002108205B
:10595000FFF7CEFEAAE0DFF8A813884208D10121A4
:105960001020FFF7C5FE00211020FFF7C1FE9DE0CB
:10597000DFF89013884208D101212020FFF7B8FEFC
:1059800000212020FFF7B4FE90E0DFF87C1388426E
:105990000AD101214FF40050FFF79CFE00214FF483
:1059A0000050FFF797FE81E0DFF8601388420AD1CC
:1059B00001215FF40020FFF78DFE00215FF400203D
:1059C000FFF788FE72E0DFF8481388420AD1012110
:1059D0005FF48010FFF77EFE00215FF48010FFF778
:1059E00079FE63E0DFF82C1388420AD101215FF4CD
:1059F0000010FFF76FFE00215FF40010FFF76AFE52
:105A000054E0DFF81413884208D101214020FFF749
:105A10006FFE00214020FFF76BFE47E0DFF8FC122D
:105A2000884208D101218020FFF762FE00218020FA
:105A3000FFF75EFE3AE0DFF8E81288420AD1012162
:105A40004FF48070FFF754FE00214FF48070FFF791
:105A50004FFE2BE0DFF8CC1288420AD101215FF41F
:105A60008030FFF737FE00215FF48030FFF732FE11
:105A70001CE0DFF8B41288420AD101215FF4003043
:105A8000FFF728FE00215FF40030FFF723FE0DE052
:105A9000DFF89812884209D101215FF48020FFF7D6
:105AA00019FE00215FF48020FFF714FE01BD10B441
:105AB00000220488DFF83832984212D0DFF84822FA
:105AC00090420ED0B0F1804F0BD0DFF828229042E8
:105AD00007D0DFF82422904203D0DFF82022904242
:105AE00004D14FF68F7214404A881443DFF8102215
:105AF000904208D0DFF80C22904204D04FF6FF42CB
:105B00001440CA88144304808A8882850A880285E2
:105B100098420FD0DFF8F02190420BD0DFF804223A
:105B2000904207D0DFF80022904203D0DFF8FC213A
:105B3000904201D1097A01860121818210BC70470F
:105B400030B4002200220022038C4FF6EF72134083
:105B50000384058C8388048B48F6FF7214404FF64B
:105B6000FF4214400A8854EA02244FF6DF721540BF
:105B70000A8955EA02154A8855EA0215DFF87021AC
:105B8000904203D0DFF8A821904217D14FF67F72E0
:105B900015404A8955EA02154FF6BF7215408A88AA
:105BA00055EA02154FF6FF3213404FF2FF721340D1
:105BB0008A8953EA8203CA8953EA82038380048371
:105BC000C9880187058430BC704730B400220022A8
:105BD0000022038C4EF6FF7213400384048C8588E8
:105BE000838B48F6FF7213404FF6FF4213400A883A
:105BF00053EA02234DF6FF7214400A8954EA023434
:105C00004A8854EA0234DFF8E820904203D0DFF8F3
:105C10002021904205D14BF6FF7215408A8955EA42
:105C2000821585808383C988A0F84010048430BC25
:105C30007047C9B2002904D0018851F001010180E8
:105C400004E002884FF6FE710A4002807047C9B234
:105C5000002906D0B0F8441051F40041A0F84410D7
:105C600005E0B0F844104904490CA0F8441070470E
:105C7000D2B2002A03D082891143818103E0828954
:105C800032EA010181817047C9B2002904D001883C
:105C900051F08001018004E002884FF67F710A40D4
:105CA000028070470022038B4FF2FF72134053EAC9
:105CB0000123038370470022838B4FF2FF7213404E
:105CC00053EA0123838370478185704701877047BA
:105CD000A0F8401070470022008A084201D001203D
:105CE00000E00020C0B2704789B2C943018270470A
:105CF000002C01400004004000080040000C00405F
:105D0000001000400014004000340140004C0140ED
:105D1000005001400054014000180040001C0040A9
:105D20000020004000400140004401400048014084
:105D3000003401401D4908431D4908607047002197
:105D400000210F23C17800291ED01949096811F4D8
:105D5000E061D1F5E061090AD1F10402CB4041785C
:105D600011FA02F281780B401A43120111490378AB
:105D7000CA540121027812F01F0291400E4A0078A5
:105D8000401142F8201009E00121027812F01F02B0
:105D900091400A4A0078401142F820107047084AA2
:105DA0001140084307490860704700000000FA05E9
:105DB0000CED00E000E400E000E100E080E100E044
:105DC00080FFFF1F08ED00E080B5524988420AD1EC
:105DD00001214FF48040FFF77DFC00214FF480400B
:105DE000FFF778FC36E04C4988420AD101215FF484
:105DF0000030FFF77DFC00215FF40030FFF778FCF6
:105E000028E0464988420AD101215FF48020FFF74B
:105E10006FFC00215FF48020FFF76AFC1AE0404924
:105E200088420AD101215FF40020FFF761FC0021C4
:105E30005FF40020FFF75CFC0CE03A49884209D18E
:105E400001215FF48010FFF753FC00215FF4801004
:105E5000FFF74EFC01BD78B585B005000C000020B1
:105E60000020002000200020A08900282E00298A80
:105E70004CF6FF700140E08801432982A9894EF663
:105E8000F3100140A2882089024360890243114334
:105E9000A981A98A4FF6FF400140A0890143A98248
:105EA0006846FFF776FB1B48864201D1039900E064
:105EB0000299A889000406D51920414320684000B2
:105EC000B1FBF0F205E01920414320688000B1FBEE
:105ED000F0F26420B2FBF0F109010B001B09642011
:105EE00000FB1322A889000408D5D00032306422B8
:105EF000B0FBF2F010F00700014307E01001323070
:105F00006422B0FBF2F010F00F000143298106B0CB
:105F100070BD0000003801400044004000480040CF
:105F2000004C004000500040C9B2002904D08189D3
:105F300051F40051818104E082894DF6FF710A40DD
:105F40008281704710B400230023002300230B003C
:105F500040F66A149BB2A3420B00DBB25B09DBB2D2
:105F600089B211F01F01012414FA01F1012B01D1B2
:105F70000C3004E0022B01D1103000E01430D2B21A
:105F8000002A03D002681143016003E0026832EA8C
:105F90000101016010BC7047C905C90D81807047BF
:105FA0008088C005C00D704700220A0092B2B2F589
:105FB000007F0088084201D0012000E00020C0B22C
:105FC000704710B400220022002200220A0040F68E
:105FD0006A1392B29A420B00DBB25B09DBB20A0091
:105FE00092B212F01F02012414FA02F2012B02D124
:105FF00083891A4006E0022B02D1038A1A4001E08D
:10600000838A1A4089B2090A89B214FA01F1008818
:106010000140002A03D0002901D0012000E0002027
:10602000C0B210BC7047002200220A0040F66A137A
:1060300092B29A4289B2090A012212FA01F189B296
:10604000C943018070470000F0B400220022002202
:10605000002200220022CB7813F00F03CA78D20668
:1060600001D58A7813430A78120620D006680024E6
:106070001AE0CA78482A16D1A740076113E0012721
:1060800017FA04F50A882A40AA420CD1A2000F256B
:106090009540AE4313FA02F232431600CA78282A1A
:1060A000E7D1A7404761641C082CE8D306600A8842
:1060B000B2F5807F26DB4668002420E0012714F13A
:1060C000080517FA05F50A882A40AA4216D1A20047
:1060D0000F259540AE4313FA02F232431600CA78F8
:1060E000282A04D114F1080217FA02F24261CA7890
:1060F000482A03D114F1080297400761641C082C58
:10610000DCD34660F0BC70470022806889B2084248
:1061100001D0012000E00020C0B2704789B20161C7
:10612000704789B24161704730B4002200220022DA
:106130000022002802D51E4A146801E01D4A146896
:10614000C0F3034283B210F44015B5F5401F08D1E7
:10615000220032F07062174C256835F070652560BA
:1061600013E0C50207D5032515FA02F234EA02024C
:1061700052F0706209E00200520DD2B2120113FA1D
:1061800002F234EA020252F07062C9B2002906D06B
:106190000100490DC9B209018B4013431A000028C0
:1061A00002D50348026001E00248026030BC70473B
:1061B0001C0001400400014018B585B0002000908B
:1061C00001208DF8040001208DF805005FF46020A7
:1061D00002900020039005208DF81000814C694644
:1061E000200003F0BDF8072303220A21200003F05A
:1061F0001FF9072301220B21200003F019F90723BF
:1062000002220C21200003F013F9072305220E219E
:10621000200003F00DF9072304220721200003F0DA
:1062200007F906B010BD18B58BB06F4C200003F015
:1062300067F96E4800906E4801900020029032206D
:10624000039000200490802005904FF48070069009
:106250004FF480600790202008904FF40050099080
:1062600000200A906946200003F0C3F901212000B4
:1062700003F0DDF95B4C0121200003F0A3F80121BC
:10628000200003F092F8200003F0A9F8200003F0AA
:10629000ABF80028FAD1200003F0AFF8200003F09B
:1062A000B1F80028FAD10121200003F0B4F80CB0B5
:1062B00010BD30B4002200211BE04D4C1D00EDB29A
:1062C0000A20454304EB05000C00E4B230F814004A
:1062D00082185B1C1800C0B20A28EEDB92B20A20BA
:1062E00092FBF0F0434A0B00DBB222F813000022CD
:1062F000491C0800C0B2052801DA0023EAE730BCD7
:10630000704780B240F6E44148434FF4805190FB1F
:10631000F1F080B27047002136498A88A12A01DA5B
:10632000A12200E08A88A13A48F2E8014A434FF4EA
:106330002041B2FBF1F240F697014A434FF47A71E3
:10634000B2FBF1F10180704700212A494A88A12A55
:1063500001DAA12200E04A88A13A48F2E8014A4362
:106360004FF42041B2FBF1F240F697014A434FF45B
:106370007A71B2FBF1F10180704700211D490A8852
:10638000A12A01DAA12200E00A88A13A48F2E80134
:106390004A434FF42041B2FBF1F240F697014A43E1
:1063A0004FF47A71B2FBF1F10180704738B5FFF715
:1063B00080FF114C14F11000FFF7ADFF14F1120033
:1063C000FFF7C2FF14F11400FFF7D7FF094DE8886B
:1063D000FFF797FFA4F84E002889FFF792FFA4F873
:1063E000500031BD00240140080002404C2401400F
:1063F00024580020CC5A0020AC570020F8B50020CB
:106400000090002001900020029002200390694635
:10641000002003F037F90121002003F049F90021A1
:10642000002003F059F905B000BD000078B587B031
:1064300005000E00DFF850432000FFF749FAADF8E1
:106440001450ADF810600020ADF816000020ADF833
:10645000120004A92000FFF72AFB6020ADF800001D
:106460000120ADF802000020ADF804000020ADF8D6
:1064700006000020ADF808000020ADF80A0000205A
:10648000ADF80C000020ADF80E0069462000FFF7C3
:1064900057FB08212000FFF705FC01212000FFF732
:1064A000F3FB01212000FFF7C4FB00212000FFF7D0
:1064B0000DFC00212000FFF7CAFB08B070BDB349F6
:1064C000098D016000214160002181600021C160CF
:1064D00000210161AE494161AE498161AE49C161AE
:1064E00001210162002141626A2181620021C162B1
:1064F0006A210163B72141635A218163704770B5F6
:106500000400616021686068091AA160A06A616B7B
:10651000884202DBA068002806D5A06BA16A8842E9
:1065200005DBA068012802DA0020206201E00120DA
:106530002062A068E168401A02F036FE616903F04B
:10654000DBF80500206A02F02FFEA16903F0D4F801
:106550000600A06802F028FE310003F0CDF8290003
:1065600003F036F90500A068E168B0EB410021694D
:10657000081802F019FEE16903F0BEF8290003F0E3
:1065800027F902F07BFE6062A16A606A4118E1624D
:10659000E0682061A068E060E06AA062B720606304
:1065A0000020A063E06A616B884201DB606B06E05B
:1065B000A06BE16A884201DBA06B00E0E06A70BD7D
:1065C00010B5C0B2002809D06F4C00212000FFF7A1
:1065D0007DFB01212000FFF73AFB08E06A4C002117
:1065E0002000FFF773FB00212000FFF730FB10BDF8
:1065F00080B5010089B26448FFF768FB01BD80B532
:106600000120FFF7DDFF5020FFF7F2FF05205F4973
:1066100081F8240001BD38B50400604D20002978C0
:10662000C0B2884236D02000C0B2002807D0200077
:10663000C0B2062803DA0120FFF7C2FF02E0002003
:10664000FFF7BEFF2000C0B2002808D002280DD0FE
:1066500008D3042812D00DD3052813D016E0FFF775
:10666000CEFF16E07820FFF7C3FF12E07D20FFF792
:10667000BFFF0EE08720FFF7BBFF0AE0B820FFF75F
:10668000B7FF06E05020FFF7B3FF02E00020FFF75E
:1066900097FF2C7031BD10B504002000C0B2002857
:1066A00005D10020FFF78CFFFFF7A9FF07E00120CD
:1066B000FFF786FFE4B2200080B2FFF799FF10BD1C
:1066C000F8B500200020314C208D00285AD0A68A31
:1066D000334F208D3860A18A3800FFF710FF050086
:1066E0002B009BB2320092B239682E4802F048FD6E
:1066F00094F82500002814D100202B4908600020C0
:106700002A490870280080B25A2800DA5A25280041
:1067100080B2B82800DBB725280080B2FFF768FFF9
:1067200030E0214D2868B6B236182E601F4E307802
:10673000401C30703078322824DB28683221B0FBCE
:10674000F1F02860208D2968884203D2608D001FF7
:10675000608506E02868218D884202D2608D001D88
:106760006085608D6A2801DA6A206085608DB828AE
:1067700001DBB7206085608DFFF73AFF00202860BD
:1067800000203070F1BD0000002C0140AC5700200B
:106790009A99193F0AD7233CCDCCCC3DA4000020C8
:1067A00074590020A8BA0008EC5A00208C5B002025
:1067B00078B587B005000E00694C2000FFF788F817
:1067C000ADF80450ADF800600020ADF806000020E0
:1067D000ADF8020069462000FFF769F96020ADF8C6
:1067E0000C000120ADF80E000020ADF812000020D2
:1067F000ADF8140003A92000FFF7A2F9082120003A
:10680000FFF750FA01212000FFF73EFA0121200096
:10681000FFF70FFA00212000FFF758FA08B070BD0B
:1068200080B5C0B2002803D100214D48FFF74EFAD1
:1068300001BD38B50C004A4D010089B22800FFF7B0
:1068400043FA210089B22800FFF740FA012128000D
:10685000FFF7EFF931BD80B50020FFF7E1FF01BD83
:1068600038B504003F4D20002978C0B2884276D068
:106870002000C0B2002807D02000C0B20C2803DAE4
:106880000120FFF7CDFF02E00020FFF7C9FF200045
:10689000C0B2002811D0022819D011D3042824D066
:1068A0001CD306282DD027D3082838D030D30A2867
:1068B00043D03BD30B2847D04DE0FFF7CCFF4DE052
:1068C0004FF4FA714FF47A70FFF7B3FF46E04FF4DC
:1068D0007A714FF4FA60FFF7ACFF3FE04FF4FA61D2
:1068E0004FF47A60FFF7A5FF38E040F6B83141F287
:1068F0008830FFF79EFF31E00B210A20FFF799FF58
:106900002CE04FF40B7140F25740FFF792FF25E067
:1069100040F2712140F2E240FFF78BFF1EE040F2AF
:10692000CB2140F29650FFF784FF17E040F242314E
:1069300040F28360FFF77DFF10E040F2E24140F655
:10694000C410FFF776FF09E040F2836140F605507E
:10695000FFF76FFF02E00020FFF762FF2C7031BDF0
:1069600000080040A600002078B587B005000E00A2
:106970005F4C2000FEF7ACFFADF80460ADF80050AE
:106980000020ADF806000020ADF8020069462000A6
:10699000FFF78DF86020ADF80C000120ADF80E0077
:1069A0000020ADF812000020ADF8140003A920006B
:1069B000FFF70BF908212000FFF77DF901212000E6
:1069C000FFF762F901212000FFF733F900212000D1
:1069D000FFF77EF908B070BD38B50400A07D00282F
:1069E00006D10020434908800020434908707DE01B
:1069F0004248A17D0278914207D000213D4A118092
:106A000000213D4A1170A17D0170A07D01280AD0AE
:106A10003ED3032816D00ED3052822D01AD3072838
:106A20002ED026D334E002203549087040F20310FE
:106A3000344908802CE00220314908703B2031495C
:106A4000088025E002202E49087040F203102D49ED
:106A500008801DE003202A49087027202949088062
:106A600016E002202649087040F2031025490880EC
:106A70000EE004202249087013202249088007E014
:106A800001201F49087040F217101E490880FFE7D7
:106A9000A07D00282AD0174D2888401C28802888EF
:106AA0000A2805DA4FF4FA711148FFF711F91DE0D1
:106AB00000210F48FFF70CF9288812280DD10E4845
:106AC0000178491C017001780D4A1278914202D375
:106AD0000021017001E000202880288809490988E8
:106AE000884203D3002028800020A07531BD00001B
:106AF00000040040745B0020845B0020865B002063
:106B0000855B0020765B00201FB50400009100200B
:106B1000ADF804000020ADF806000020ADF8080034
:106B20000020ADF80C000C20ADF80A0069462000EA
:106B3000FFF791F9012240F225512000FFF702FAF8
:106B400001212000FFF7F0F91FBDF8B504000D008A
:106B50001600002000270CE0297889B22000FFF7FA
:106B60001BFA80212000FFF71FFA0028F9D06D1CC6
:106B70007F1C3800C0B2310080B289B28842EBD3AA
:106B8000F1BD0065406580F85A10704790F85920B3
:106B9000002A15D1026D1170016D491C016501219A
:106BA00080F85810016D90F85A200244914200D3A9
:106BB0000065016D426D914202D1012180F85910AA
:106BC0007047002190F85810002901D1002017E0EB
:106BD000416D0978426D521C4265002280F85920AF
:106BE000426D90F85A3003449A4200D34065426D9A
:106BF000036D9A4202D1002280F858200800C0B2EA
:106C000070470000C0B2002804D04020DFF8A4196B
:106C1000086003E04020DFF8A0190860704780B5E5
:106C20000120FFF7EFFF01BDC0B2002805D04FF4EF
:106C30000070DFF88019086004E04FF40070DFF89E
:106C400078190860704780B50020FFF7EDFF01BD9F
:106C5000C0B2002805D04FF48070DFF858190860E2
:106C600004E04FF48070DFF8501908607047C0B23C
:106C7000002804D08020DFF83C19086003E0802061
:106C8000DFF834190860704738B5DFF8304994F8F8
:106C90002300002855D0DFF828090178491C01702D
:106CA00001780A2912DB00210170DFF818592878D1
:106CB000012812D1DFF810090078002807D1002040
:106CC000FFF7D5FF0120FFF7C3FF06E045E00020F6
:106CD000FFF7BEFF0120FFF7CAFF2878401C28708D
:106CE0002878122818DB94F85E00002812D10020C2
:106CF00028700120FFF7ACFF0120FFF7B8FFDFF895
:106D0000C8180878002802D10120087004E000208B
:106D1000087001E012202870287802281DDB208AE4
:106D200040F6C411884218DB00202870DFF898185C
:106D30000878002802D1012008700EE000200870B9
:106D40000BE00020DFF8781808700020DFF87418D6
:106D500008700020DFF87018087031BD80B5002081
:106D6000FFF776FF0020FFF782FF002002F029FEE8
:106D7000002002F031FE002002F034FF01BD70B5AA
:106D80000400002509E0012002F0E6FF761C300037
:106D900080B2B0F57A7FF6DB6D1C2800210080B24E
:106DA00089B2884201D20026F1E770BDDFF80C08F5
:106DB00090F85C10012903D090F8660001281ED1DC
:106DC000DFF808080178491C01700078022190FB67
:106DD000F1F201FB1200002808D02020DFF8D817BC
:106DE00008600120DFF8E81708600CE02020DFF8D9
:106DF000C41708600120DFF8DC17086003E00020FA
:106E0000DFF8C8170870704738B50400DFF8AC57D2
:106E1000002085F823000020E884002085F85E002B
:106E2000002085F85D00012002F0CBFD042085F8EC
:106E3000240095F82400FFF7EEFB002085F82500DC
:106E400095F82500FFF70CFDE4B2002C3DD0288A10
:106E500040F2145188421DDB002085F823000120F8
:106E600002F0AFFD002002F0B7FD0120FFF7F0FEB9
:106E70000120FFF7FCFE002085F82200012002F02F
:106E8000B1FE4FF40040DFF85017086040F6B8300C
:106E9000FFF775FF4FF40040DFF84017086001204E
:106EA00085F822000020FFF7E2FE0120FFF7D0FE68
:106EB0006420FFF764FF012085F823000120FFF71D
:106EC000A1FE0120FFF7B0FE42E0002085F823007C
:106ED000012002F076FD002002F07EFD0120FFF788
:106EE000B7FE0120FFF7C3FE002085F82200012035
:106EF00002F078FE288A40F21451884203DB40F603
:106F0000B830FFF73CFF0020FFF78EFE0020E8843A
:106F1000288A00281CD00120FFF79AFE0120FFF7E5
:106F2000A6FE4FF47A70FFF72AFF002002F054FD0E
:106F30000020FFF78DFE0020FFF799FE4FF47A70D6
:106F4000FFF71DFF012002F03CFD002002F044FD90
:106F500031BD10B5C0B2002825D0DFF86046002052
:106F600084F82300002060710020FFF771FE0020EC
:106F7000FFF77DFE4FF40040DFF860160860012047
:106F800084F822004FF47A70FFF7F9FE0120FFF732
:106F90005FFE012084F823000120FFF733FE01206B
:106FA000FFF742FE41E00420DFF824160860DFF816
:106FB0000C46002084F823000020E084002084F8A0
:106FC0005E00002084F85D00042084F8240094F81A
:106FD0002400FFF720FB002084F8250094F825000A
:106FE000FFF73EFC012002F0ECFC002002F0F4FC74
:106FF0000120FFF72DFE0120FFF739FE002084F865
:107000002200012002F0EEFD4FF40040DFF8C81529
:10701000086040F6B830FFF7B2FE0020FFF704FE2C
:107020006078002801D00120607110BD10B5DFF834
:107030008C45607F002803D194F85B0000287DD048
:1070400094F86700002879D00420DFF884150860E0
:10705000607F002801D0607FA0770020E0840020BE
:1070600084F82300002084F85E00012002F0A9FCCF
:10707000042084F8240094F82400FFF7CCFA0520BB
:1070800084F8250094F82500FFF7EAFB002084F837
:107090002300012002F095FC002002F09DFC01205D
:1070A000FFF7D6FD0120FFF7E2FD002084F8220063
:1070B0004FF40040DFF820150860012002F092FD37
:1070C00040F6B830FFF75BFE002084F8250094F806
:1070D0002500FFF7C5FB0120FFF794FD0020FFF717
:1070E000A3FD0020E0840120FFF7B2FD0120FFF79F
:1070F000BEFD4FF47A70FFF742FE002002F06CFCF8
:107100000020FFF7A5FD0020FFF7B1FD4FF47A70D6
:10711000FFF735FE012002F054FC002002F05CFC79
:107120000020FFF795FD0020FFF7A1FD002084F867
:10713000670000206077002084F85B0010BD7CB5FC
:107140000020ADF80000DFF89044402020600020CF
:1071500001F0CCFA2020DFF860140860DFF870043A
:10716000012101604FF4807101604FF400710160F2
:10717000DFF860542021296004210160FFF7EEFD53
:10718000FFF769FB02F033FCFFF749FDFFF737FA21
:10719000FFF759FD02F033FD02F0CCFDDFF84004AB
:1071A00002F088FBDFF83C04FFF789F9DFF8386468
:1071B00001226946300003F03FF8BDF8000045F2B7
:1071C000500188421AD1DFF8F40301210170012136
:1071D00041702020DFF8DC13086001202860402087
:1071E000DFF8F8130860202020600020ADF80000D0
:1071F00001226946300002F089FF03E00020DFF839
:10720000BC13087073BD10B5DFF8B043A078002838
:1072100008D14020DFF8C4130860012001F066FAAD
:107220000120A07010BD10B5DFF89043A0780128B0
:1072300026D1002084F86300002084F86700002035
:1072400084F866004020DFF890130860002001F009
:107250004DFA2020DFF860130860DFF87403012185
:107260000160042101602020DFF870130860002015
:10727000FFF7CAFDFFF772FD0020E0710020A0704B
:1072800010BDDFF83813C88C00280CD191F8240009
:10729000052808D191F82500002804D10420DFF842
:1072A0003013086006E0C88C002803D00420DFF803
:1072B0002413086070473EB5DFF830030088ADF84E
:1072C0000400BE4A9069DFF8281302F0CBFF07D90B
:1072D00092F852005A2803DA92F853005A2821DB18
:1072E000C44C2078401C20702078782817DBC24DD1
:1072F0002878002803D1012050770120287092F8C7
:107300006400002809D101A8009002234422022130
:10731000BA4800F09AF90020287000202070002060
:10732000607021E09069B64902F0AEFF19D292F880
:107330005200582815DA92F85300582811DAAD484F
:107340004178491C41704178782907DBAA490B78BC
:10735000012B01D100230B7000214170002082F825
:1073600064000020A349087037BDFEB514001D005D
:10737000A44A1288ADF80420A34B02001E78D2B2B2
:10738000B24219D000220A70A04A002616700026C8
:1073900056704FF48062884E32600200D2B2002AEA
:1073A00007D04FF400728A4E32604FF48072894EDB
:1073B00032601870002020700878002805D002285C
:1073C00022D00ED303282FD068E090480278521CB8
:1073D00002700278142A03DB002202700120087078
:1073E0005CE07B484FF4807202604FF400720260F0
:1073F00086480278521C02700278502A03DB002271
:1074000002700220087049E04FF48060694A106001
:107410007E480278521C02700278142A03DB002294
:1074200002700320087039E04FF400617848FEF7DD
:107430006BFE002820D0754E3078401C30703078BC
:10744000502816DB00203070724F3878002803D1A6
:1074500001202070012038702878002809D101A867
:107460000090022344220221644800F0EEF800203C
:1074700038700020707011E064484178491C4170F8
:107480004178282908DB0021624A117000214170EF
:10749000002121700021297000210170F7BDF8B58D
:1074A000464C94F85C00012820D1052084F8250082
:1074B00094F82500FFF7D4F94FF47A70FFF75FFCDA
:1074C000434D4FF480762E604FF4007741480760BB
:1074D0004FF4FA70FFF753FC2E602F6020203649DE
:1074E000086001202860002084F85C00F1BD38B5F8
:1074F00004002000C0B2002847D0012849D1FFF77E
:1075000082FE2E4DE87801280FD10020E87001207E
:10751000FFF77AFC95F86500002806D195F864001D
:10752000002802D1012085F867002879012816D1AA
:10753000002028716878002803D10020FFF709FD9A
:107540000DE00120FFF705FD95F86500002806D144
:1075500095F86400002802D1012085F8670002F048
:10756000D2FA02F058FBFFF7ABF895F82500FFF7C9
:1075700077F995F82400FFF74EF802F074FD280023
:10758000FFF72AFAFFF77DFE03E0FFF74CFEFFF757
:1075900086FFFFF790FE094810F1650310F15B02CA
:1075A00010F15A012000C0B2FFF7DFFEFFF73EFDE9
:1075B00031BD00001010014014100140AC570020F4
:1075C0008E5B00208D5B00208F5B0020905B002095
:1075D000140C0140100C0140100801401408014037
:1075E000B059002074590020F42F0008B63D00085F
:1075F00000008C427C5B0020915B00200044004036
:10760000010086422E3E0008A50000207E5B00207F
:1076100000100140925B0020002101800021817058
:107620000021C170002101710021417100214183BD
:10763000002105E000220B00DBB203449A71491CD3
:107640000A00D2B2142AF5DB704778B585B0040081
:107650000D000A98002153218DF800106946472635
:107660004E702E1D8E7000268DF8036005260E715B
:107670004A718DF80630002108E00A00D2B2825C1F
:107680006B460E00F6B23344DA71491C0A002B0037
:10769000D2B2DBB29A42F0D3691DC9B20DF1020039
:1076A00002F004FE010089B2090A6A462B00DBB22F
:1076B0001A44D17169462A00D2B211440872EDB25F
:1076C00009352A0092B269462000FFF73EFA06B05B
:1076D00070BD0300DBB2C9B28B4205D3D2B2C0B2D7
:1076E000824201D3012000E000207047F8B5060077
:1076F000080014001D00002190F85910012906D13E
:1077000090F85810002902D1012180F8581090F803
:107710005810002900F0B9802978002909D00229E1
:1077200037D02ED3042965D05CD306297DD069D308
:10773000ABE0564E3178002910D1FFF742FA208095
:107740002088000220802088B0F5A64F03D1307831
:10775000401C307014E00020208011E0FFF731FA67
:107760002188C0B208432080208845F247318842F2
:1077700002D10120287001E0002028700020307024
:1077800083E0FFF71EFAA07002202870A078A07195
:107790007BE03E4E3178002912D1FFF712FAE070FB
:1077A000E078E0710020E070E078002803D13078C4
:1077B000401C307015E00020E0700020287010E0C0
:1077C000FFF7FFF9E1780843E070E0782072E07895
:1077D000052802D10320287001E000202870002035
:1077E000307052E0FFF7EDF9207104202870207905
:1077F00060724AE0FFF7E5F9607105202870607952
:10780000A07242E0214E3178491C3170FFF7D9F95E
:107810003178214488723078A178091F884203D1D9
:1078200000203070062028702FE0FFF7CAF9010011
:10783000164F3878002806D1C9B20902618338781A
:10784000401C387021E0608BC9B201436183A1788C
:10785000491CC9B2A01D02F029FD618B80B2814292
:107860000CD1F6B2012E09D114F10B03A078021F3E
:10787000D2B22100064801F018F9FFE70020387065
:107880002000FFF7C9FE00202870F1BD8B5B0020AF
:10789000004400402DE9F84384B006000F009146F3
:1078A0009846484680B2800002F038FD0500002D61
:1078B0000BD05C2002F032FD0400002C01D02563C7
:1078C00004E0280002F0B3FD00E00024002C13D0F7
:1078D0000D990C9800220392029401910090434666
:1078E0001FFA89F94A463900300000F00AF82000F2
:1078F00000F062F8012001E05FF0FF3005B0BDE864
:10790000F0832DE9F84380460C0017001D000A9E05
:10791000B900A522D6F83090484602F02FFE306B11
:1079200000EB8700071FFF08FF0017F00700002883
:1079300007D040F22B32DFF88014DFF8F80501F0B1
:107940001FFC002100E0491C102907D2605C06EBF7
:10795000010282F83400605C0028F4D1DDF8209048
:10796000002086F84300B9F1200F01D35FF01F0912
:10797000099CC6F82C90C6F84C9000203065301D4C
:1079800002F03EFE16F1180002F03AFE3661D9F11F
:107990002009C6F81890766200207065002086F8ED
:1079A00058002A004146380000F0D4FC3060002C1A
:1079B00000D02660BDE8F18338B5040000F027FD53
:1079C000DFF894140868401C0860DFF890542868B9
:1079D000002806D12C60086801280DD100F024FB96
:1079E0000AE0DFF87C040068002805D1E06A296815
:1079F000C96A884200D32C60DFF868040168491C1A
:107A0000016000686064DFF860140A680123E06ABE
:107A100083401A430A60211DDFF85024E36A1420D2
:107A2000434302EB030002F0EEFD00F00AFDDFF835
:107A30003004006800280DD02868C06AE16A8842D6
:107A400008D25FF08050DFF8DC150860BFF34F8F7D
:107A5000BFF36F8F31BD38B5040000F0D8FC002CA7
:107A600003D1DFF8F8030468FFE7201D02F0F2FD00
:107A700000280FD1DFF8F413E26A1420424388583B
:107A8000002807D1DFF8E0130A680123E06A834089
:107A90009A430A60A06A002803D014F1180002F08B
:107AA000D9FDDFF8C0030168491C0160DFF8AC5361
:107AB000286884420AD1211DDFF8F00302F0A3FDFB
:107AC000DFF8EC030168491C016009E0DFF8880376
:107AD0000168491E0160200000F0FBFA00F002FB83
:107AE00000F0AFFCDFF878030068002818D02868A1
:107AF000844215D1DFF840040068002807D040F226
:107B00006542DFF8B412DFF82C0401F039FB5FF0B6
:107B10008050DFF810150860BFF34F8FBFF36F8FF1
:107B200031BD10B504000020002C14D0DFF808048B
:107B30000068002807D040F2CF42DFF87C12DFF85F
:107B4000F40301F01DFB00F048F80021200000F0D4
:107B5000A9FB00F048F8002808D15FF08050DFF85A
:107B6000C4140860BFF34F8FBFF36F8F10BDE0B533
:107B7000DFF8F40601900020009000238222DFF855
:107B8000EC160FF27D40FFF785FE012801D102F0CF
:107B900075FD012816D1502080F31188BFF34F8F57
:107BA000BFF36F8F5FF0FF30DFF8C416086001206D
:107BB000DFF8AC1208600020DFF88013086000F0E6
:107BC000ECFB09E010F1010F06D140F284727A4912
:107BD000DFF8600301F0D4FA07BDDFF85C03016849
:107BE000491C0160704770B500240025DFF8486328
:107BF0003068002806D14FF4FD626F49DFF8340386
:107C000001F0BEFA00F003FC3068401E30603068BE
:107C1000002853D190480068002825D14EE0C8685C
:107C2000C46814F1180002F015FD201D02F012FDC9
:107C3000DFF834120A680123E06A83401A430A60BD
:107C4000211DDFF82822E36A1420434302EB0300DE
:107C500002F0D9FCE06A81490968C96A884203D305
:107C60000120DFF830160860DFF8201608680028C9
:107C7000D5D1002C01D000F035FADFF81466346855
:107C8000002C0CD000F022F8002803D00120DFF8EF
:107C900004160860641E002CF4D100203060DFF868
:107CA000F4050068002809D001255FF08050DFF856
:107CB00074130860BFF34F8FBFF36F8F00F0C1FBE9
:107CC000280070BDDFF8740200687047F8B5002521
:107CD00099480068002861D198480468641C0460D1
:107CE000002C18D1DFF8106330680068002805D038
:107CF00040F6D91230498F4801F042FA3068DFF877
:107D0000FC120A6832600860DFF88C050168491CC3
:107D1000016000F0E7F9DFF85865306884422ED33F
:107D200020E0381D02F096FCB86A002803D017F155
:107D3000180002F08FFC4C490A680123F86A83405E
:107D40001A430A60391D494AFB6A1420434302EB77
:107D5000030002F058FCF86A40490968C96A884281
:107D600000D30125DFF8901208680068002811D0C0
:107D70000868C068C76878688442D2D230603B49DE
:107D800036480068C26A14204243885802280AD341
:107D9000012508E05FF0FF303060F0E7DFF8F00425
:107DA0000168491C0160DFF8EC040068002800D07D
:107DB00001252800F2BD00002CBB000870B55E480C
:107DC0000068002804D00120DFF8C814086029E00A
:107DD0000020DFF8C014086023480068B0FA80F47F
:107DE000D4F11F041425214E05FB04F0305800285F
:107DF00006D140F6F622DFF8A4144E4801F0C0F98F
:107E00006C4306EB0400416849684160416810F129
:107E10000802914202D14168496841604068C068E7
:107E20000E49086070BD38B504000D00002C06D165
:107E300040F60632DFF864143E4801F0A1F9DFF89D
:107E4000D404006810F11801200002F0E8FB0121C1
:107E5000280000F027FA31BD305B0020205B0020B5
:107E60003C5B00204C5B0020385B0020A8540020C5
:107E700070B505000E001400002D06D140F6313219
:107E8000DFF818142B4801F07BF9DFF8880400684C
:107E900010F11801280002F0B6FB002C01D05FF0B1
:107EA000FF362100300000F0FDF970BD7C5A002043
:107EB0002C5B002010B5C068C468002C06D140F6C9
:107EC0006132DFF8D8131B4801F05AF914F1180099
:107ED00002F0C0FB18480068002815D1201D02F0F0
:107EE000B9FBDFF8BC130A680123E06A83401A4338
:107EF0000A60211DDFF82024E36A1420434302EBCB
:107F0000030002F080FB05E014F11801DFF87C03A8
:107F100002F079FBDFF8FC030068C06AE16A88427E
:107F200005D201200121DFF86C23116000E0002060
:107F300010BD0000ECBE0008585B0020345B002040
:107F400010B50400002C07D140F6C132DFF84C1305
:107F5000DFF8CC0301F014F9DFF83C03006820607F
:107F6000DFF8C0030068606010BD38B504000D0084
:107F7000002C07D140F6CB32DFF82013DFF8A00346
:107F800001F0FEF8002D07D140F6CC32DFF80C13DB
:107F9000DFF88C0301F0F4F800F039FADFF884031D
:107FA0000168286810F1010F01D100241AE0DFF800
:107FB000E80200682268904204D06068814201D3E0
:107FC00001240FE06068081A2A68904209D22868E4
:107FD000411A6068411829602000FFF7B1FF0024B2
:107FE00000E0012400F02DFA200032BD0120DFF86E
:107FF000A412086070470000245B0020285B00206A
:1080000080B500F03CF8DFF8100300680228F8D3D0
:108010005FF080503C490860BFF34F8FBFF36F8F14
:10802000EFE7000004ED00E038B5002408E0DFF8D9
:10803000E802142101FB04F1084402F0D2FA641CA6
:10804000202CF4D3DFF8E042200002F0CAFADFF877
:10805000DC52280002F0C5FADFF8300202F0C1FA63
:10806000DFF8CC0202F0BDFADFF8C80202F0B9FA7C
:10807000DFF8C4020460DFF8C402056031BD70B5EA
:1080800018E00024FFF7AFFD002C13D100F0BFF97A
:10809000F068C468201D02F0DDFADFF8A402016870
:1080A000491E01602868401E286000F0CAF92000BF
:1080B00000F00FF8DFF88C522868002808D0FFF78E
:1080C0008CFDDFF86C6230680028DAD10124D9E732
:1080D00070BD10B50400206B02F0A9F9200002F079
:1080E000A6F910BDDFF8501208680068002804D116
:1080F0005FF0FF305E49086005E00868C068C0684E
:1081000040685B490860704704ED00E0DFF8380222
:108110000068002801D1012007E0DFF800020068B4
:10812000002801D1022000E000207047F8B50400CB
:10813000002840D0DFF8DC71E06A3968C96A8842FB
:1081400039D2A069002804D43868C06AD0F1200070
:10815000A061DFF8C45114266069E16A71432944C3
:10816000884225D1201D02F075FA00280CD1E06A62
:1081700070432858002807D1DFF8D0110A6801237E
:10818000E06A83409A430A603868C06AE062DFF8B8
:10819000BC110A680123E06A83401A430A60211D6A
:1081A000E06A06FB00F605EB060002F02CFA02E09E
:1081B0003868C06AE062F1BD38B5040000250028C7
:1081C0004FD0DFF850010068844207D040F6C76204
:1081D000DFF8C810DFF8480100F0D2FF206D00285A
:1081E00007D140F6C962DFF8B410DFF8340100F0BF
:1081F000C7FF206D401E2065E06AE16C884230D0E8
:10820000206D00282DD1201D02F024FA00280FD166
:10821000DFF80411E26A142042438858002807D18D
:10822000DFF87C100A680123E06A83409A430A6001
:10823000E06CE062E06AD0F12000A061DFF860103D
:108240000A680123E06A83401A430A60211DDFF8AF
:10825000C820E36A1420434302EB030002F0D3F981
:108260000125280032BD0000545B0020A8BF000893
:10827000505B0020DFF89C100868002803D00868D5
:10828000026D521C0265086870470000685A0020A1
:10829000405B0020445B0020485B00202CBB0008B2
:1082A000385B0020F8B505000C001E480668194F21
:1082B0003868001D02F0CEF9002807D1386823493C
:1082C0000A680123C06A83409A430A6015F1010FCE
:1082D00007D1002C05D03868011D164802F093F92B
:1082E00016E0AD1938684560B54206D23868011D00
:1082F0001248006802F093F90AE03868011D0E4840
:10830000006802F08CF9124801688D4200D20560C5
:10831000F1BD0000205B0020A8540020585B002025
:10832000ECBE0008345B0020405A0020545A002064
:108330007C5A0020905A0020245B0020285B0020FB
:10834000305B00202C5B00203C5B0020385B002071
:10835000505B0020001F5FF080730360001F49081E
:1083600049000160001F0FF20D0101601438026026
:108370002038704780B55948006810F1010F04D0CB
:10838000EE225749574800F0FBFE502080F3118839
:10839000BFF34F8FBFF36F8FFEE7E0B55248017810
:1083A0000191FF21017001788DF800109DF80010F7
:1083B00011F050014D4A11704D4907220A6007E043
:1083C0000A68521E0A609DF8002052008DF80020B5
:1083D0009DF800201206F3D40A6812020A600A68A7
:1083E00012F4E0620A60019901704248016851F498
:1083F00070010160016851F07041016000F082F885
:1084000000203649086002F074FB00200EBD80B5E4
:10841000502080F31188BFF34F8FBFF36F8F2F4829
:108420000168491C01600068012809D132480068D0
:10843000000605D04FF4A67229492A4800F0A0FE94
:1084400001BD10B5254C2068002805D140F253121B
:108450002349244800F094FE2068401E20602068D4
:10846000002802D1002080F3118810BD80B5502073
:1084700080F31188BFF34F8FBFF36F8FFFF726FC98
:10848000002803D05FF080501B490860002080F373
:10849000118801BD0000000080B5EFF305801028B1
:1084A0000DD316490968085C10490978C0B28842A2
:1084B00005D240F247220A490A4800F061FE0C4802
:1084C00000680F49096811F4E061884205D240F262
:1084D00057220349034800F053FE01BD000000206D
:1084E00004BA0008CCBE000800E400E09B5B00205A
:1084F000185B002020ED00E004ED00E0C4BF0008A0
:108500000CED00E0064800684FF47A71B0FBF1F022
:10851000401E04490860072003490860704700BFF7
:108520001800002014E000E010E000E038B500245E
:1085300000254FF480516148FDF7E6FD002801D188
:1085400054F001045E490878002805D0022822D0A2
:108550000ED3032860D060E0E4B2002C02D00120EA
:10856000087001E00020087000205649087054E0AF
:108570002000C0B2002808D002200870E4B2E00752
:1085800005D580204F49087001E0002008700020C8
:108590004D49088041E0E4B2002C0ED10020087063
:1085A00049480188642902DA46490D786D1C00218A
:1085B00001800020454908702DE043490888401C8F
:1085C00008800888642826DB3E4A1078802804D179
:1085D0000888642801D11578AD1C0888642806D164
:1085E0003B480078012802D10120384B18703748E9
:1085F000007800280DD00888B0F5FA7F01D11578F1
:10860000ED1C0888B0F5FA7F05DB40F226200880D3
:1086100001E09620088000E0FFE72800C0B232BDEC
:108620001FB5002068462B4991E81C0080E81C001B
:10863000FFF77CFFC0B2812804D03DD3832836D019
:108640001BD339E022490878002810D10120087096
:108650000120487020202049086001201F4908603F
:1086600040201F49086020201E49086004E00B22BA
:1086700069461D48FEF769FA1EE01549087800288A
:1086800001D1012000E000200870087801280DD1F8
:108690000120487020201049086001200F4908601F
:1086A00040200F49086020200E49086004E00120A6
:1086B000074981F85C00FFE71FBD0000000C014086
:1086C000935B0020945B0020805B0020955B002082
:1086D000AC57002028BF000810100140100C0140CA
:1086E00014080140100801400044004080B50321F7
:1086F0008DF802100100C9B201290BD10420ADF898
:10870000000018208DF803006946DFF88809FDF79E
:108710009BFC0DE0C0B200280AD10420ADF8000097
:108720001C208DF803006946DFF86809FDF78CFC12
:1087300001BD38B50020DFF86009807900282BD111
:10874000DFF858592878002826D1DFF85449DFF897
:108750005419200002F0DEF9002802D00120287010
:108760001AE00020DFF840190870002004E0002122
:108770000200D2B2A154401C0100C9B21E29F6DB8E
:10878000DFF828492000FBF737FB020092B22100F6
:10879000DFF81C09FEF7D9F931BD78B587B00020A4
:1087A000DFF8F44894F86800002800F09880412031
:1087B0008DF800006846542141702B218DF802107D
:1087C00073218DF8031065218DF8041074218DF844
:1087D000051041218DF8061064218DF807106421E1
:1087E0008DF8081072218DF809103D21817294F8DE
:1087F00069108DF80B1094F86A108DF80C1094F82D
:108800006B10417394F86C008DF80E0094F86D00B5
:108810008DF80F0094F86E008DF8100094F86F003A
:108820008DF8110094F870008DF8120094F8710022
:108830008DF8130094F872008DF8140094F873000A
:108840008DF8150094F874008DF816000D208DF841
:1088500017000A208DF818004020DFF8581808602B
:108860000020FFF743FF4FF4FA60FEF788FA40203C
:10887000DFF8441808600120FFF738FF4FF47A70E2
:10888000FEF77DFADFF82858192269462800FEF71E
:108890005CF94FF49670FEF772FADFF80818DFF80B
:1088A000000802F037F9002804D0DFF8100800F0C3
:1088B00067FC03E0DFF8080800F062FCDFF80468FA
:1088C0003000FBF799FA020092B231002800FEF75F
:1088D0003CF9C820FEF753FA002084F8680008B07D
:1088E00070BD38B5DFF8B0472078012879D1022172
:1088F000DFF8A007FDF708FC00280ED1DFF8C80755
:108900004178491C41704178322903DB0121A17172
:1089100000214170002101706EE0A07901285BD137
:10892000DFF8A4572878401C28702878142853DBD7
:108930000020A071002084F863000020E084002063
:1089400084F82300002084F85D00002084F85E0095
:10895000002084F86500002084F86400002084F87A
:1089600067000420DFF864170860012001F029F88F
:10897000042084F8240094F82400FDF74CFE002025
:1089800084F8250094F82500FDF76AFF012001F026
:1089900018F8002001F020F8002084F822004FF49D
:1089A0000040DFF810170860012001F01BF90120DA
:1089B000FEF74EF90120FEF75AF94FF47A70FEF7F0
:1089C000DEF90020FEF730F90020FEF741F9002023
:1089D000FEF74DF9002028700020DFF8EC164870F3
:1089E0000AE0A079012801D10020A071DFF8D806A3
:1089F000002101700021417031BDC0B2002808D1B2
:108A00004020DFF8C81608600020DFF8C4160870A0
:108A100021E0C9B2002908D04020DFF8B81608606C
:108A20000020DFF8AC16087015E0DFF8A406017826
:108A3000491C01700178062904DA4020DFF89416F9
:108A4000086008E04021DFF88426116001780A29D7
:108A500001DB00210170704710B4DFF83C1691F87B
:108A6000540000281FD0DFF870261078401C1070CA
:108A70001078022390FBF3F403FB1400002805D0C8
:108A80004FF48040DFF84C36186004E04FF480402B
:108A9000DFF8383618601078042804DB002081F8ED
:108AA00054000020107010BC7047F0B587B005006E
:108AB0000E000020002007E00100C9B2595C01ACA3
:108AC0000700FFB2E155401C01001400C9B2E4B236
:108AD000A142F1D3DFF8C045012084F85400307979
